:1000000043C05DC089C05BC05AC059C058C057C00A
:1000100056C055C054C053C052C051C050C0F1CAA0
:1000200088C8D8C8F5C81EC94EC965C982C9C2C921
:10003000C3C9D5C9E4C910CA13CA50CAA0CAAACA3A
:10004000CBCA090219000101008064090400000103
:10005000FF00000007058103080064120110010081
:1000600000000881179F0C040100020001160355CF
:100070000053004200740069006E00790053005084
:10008000004900040309040011241FBECFE5D2E09B
:10009000DEBFCDBF10E0A0E6B0E0E8E9F6E102C0C7
:1000A00005900D92A636B107D9F711E0A6E6B0E0AB
:1000B00001C01D92AF38B107E1F7E8D7EBCAA0CF76
:1000C000A82FB92F80E090E041E050EA609530E041
:1000D00009C02D9182279795879510F08427952741
:1000E000305EC8F36F5FA8F30895EADF8D939D93A8
:1000F0000895A6E088279927AA9569F00197E1F36A
:10010000B399FCCFB39BFECF81E09927A6B30196AC
:1001100011F0A871D9F70895CF93CFB7CF93C395B6
:10012000B39BE9F7B39B0BC0B39B09C0B39B07C05C
:10013000B39B05C0B39B03C0B39B01C0D5C00F9256
:10014000DF93C0916101DD27C859DE4F012EB39BBB
:1001500003C0DF910F90E6CF2F930F931F934F9320
:100160002FEF4F6F06B303FB20F95F933F9350E0EF
:100170003BE065C016B30126502953FDC89556B320
:10018000012703FB25F92F7306B3B1F05027102781
:1001900013FB26F906B22230F0F000C016B3012797
:1001A00003FB27F90126502906B22430E8F54F77E2
:1001B000206816B30000F6CF50274F7D206206B2AC
:1001C000102F000000C006B300265029102713FB93
:1001D00026F906B2E2CF4F7B06B3206400C0DACF27
:1001E00001265029187106B269F14E7F2160012F56
:1001F00016B328C0002650294D7F06B22260102F6A
:1002000029C0012650294B7F06B22460012F2DC042
:1002100016B301265029477F2860000006B22EC081
:100220004F7E06B3206130C0422706B349930026B3
:100230005029102706B24FEF13FB20F9297F16B380
:1002400079F2187159F10126502906B2012703FBF2
:1002500021F9237F06B371F2002650293150D0F0E6
:1002600006B2102713FB22F9277E16B351F201269E
:100270005029012703FB06B223F92F7C49F2000025
:1002800006B3102713FB24F90026502906B22F7954
:1002900039F270CF10E21ABF002719C03B503195D8
:1002A000C31BD04010E21ABF0881033C09F10B3494
:1002B000F9F020915F011981110F1213EDCF4A81DE
:1002C000441F093651F10D3211F0013E29F7009318
:1002D00066013F915F914F911F910F912F91DF9197
:1002E0000F90CAB7C5FD1BCFCF91CFBFCF91189547
:1002F00020916601222369F310916401112379F59D
:1003000034307AF1309364012093600110916101DF
:100310003BE0311B3093610124C000916401013046
:10032000F4F40AE54F7049F43091600034FD1AC0CE
:1003300000936000C8E4D1E019C03091530134FD4E
:1003400011C000935301C4E5D1E010C0052710E0AF
:1003500000C021C0052710E0C89508BB14C03AE5CD
:1003600001C032ED032EC0E0D0E032E017B31861D7
:10037000C39A08B317BB58E120E84FEF20FF0527C9
:1003800008BB279517951C3F28F700004552B0F78A
:1003900020FF0527279508BB17951C3FB8F6299124
:1003A0003A9561F7077E10916501110F08BBC250A5
:1003B000D04011F010935F0110E21ABF086017B32C
:1003C000177E402F477E54E05A95F1F708BB17BBC4
:1003D00048BB7FCFCF93DF9360916401635067FD8B
:1003E000AFC0209161018CE090E0821B9109EC018B
:1003F000C859DE4F209160012D3209F08FC068305E
:1004000009F09CC023EC209348012AE5209360006A
:10041000109266002881207631F0CE016BD28F3F9A
:1004200009F46BC071C03A811092510129812223D5
:1004300031F41092520121E531E082E059C02530BB
:1004400019F43093650151C02630C9F5FC01E65915
:10045000FE4F208185599E4FFC018081813041F4FF
:100460008BE590E0909363018093620182E123C069
:10047000823041F482E490E09093630180936201C2
:1004800089E119C08330B1F4222341F483E890E07C
:10049000909363018093620184E00DC0213051F09C
:1004A000223041F48DE690E09093630180936201E5
:1004B00086E101C080E090E49093660025C028307A
:1004C00069F0293019F4309367010FC02A3049F0E0
:1004D0002B3059F48BE48093540107C027E631E0B8
:1004E00002C021E531E081E003C021E531E080E098
:1004F000309363012093620107C0988197FD8E813C
:1005000090E89093660007C09F81992321F49E8113
:10051000981708F4892F8093610010C080916600BD
:1005200087FF0CC0CE017BD18F3F21F48EE18093F9
:10053000600004C0882311F01092610010926401E1
:100540008091600084FF54C0809161008F3F09F466
:100550004FC0C82F893008F0C8E08C1B8093610021
:100560008091480198E8892780934801CC2379F14C
:100570002091660027FF08C089E491E06C2F2FD1FD
:10058000C82F893078F523C0809162019091630172
:1005900026FF0AC0FC012C2FA9E4B1E034913D9361
:1005A00031962150D9F708C0DC012C2FE9E4F1E0A5
:1005B0003D9131932150E1F72C2F215030E02F5FF6
:1005C0003F4F280F391F309363012093620189E464
:1005D00091E06C2F8ADDCC5FCC3041F08FEF8093BF
:1005E000610004C08FEF80936100CEE1C093600092
:1005F00084E196B3987131F48150D9F71092650176
:1006000010925F01C1E08111C0E0809167008C17FA
:1006100029F0CC2309F4B7D3C0936700DF91CF91C1
:100620000895AC9A8BB780628BBF8BE480935401A2
:100630008AE5809353010895FC01DB0134E0519178
:1006400088E090E040E820E0642F652309F0C09A3C
:1006500060916200062E00C00000000000000A94B5
:10066000D1F7C29A60916200062E00C0000000001F
:1006700000000A94D1F7220FB1992F5FC098C29859
:100680004695019709F72D933150C9F60895809149
:100690006D0090916E009C012F5F3F4F30936E0074
:1006A00020936D0020916F0027FF02C0880F991FD3
:1006B0002093700080FF03C0286020937000292FD2
:1006C000269520937100969587958093720080E718
:1006D00090E069E670E0B0DF0895B99A24E030E078
:1006E000E1E09E2F982321F098B39C7F926002C096
:1006F00098B39C7F98BBEE0F1092410107C045E074
:100700004A95F1F700C09F5F90934101909141019C
:10071000692F70E040916300509164006417750781
:1007200070F3C09A1092410107C045E04A95F1F775
:1007300000C09F5F9093410190914101692F70E04B
:1007400040916300509164006417750770F3215065
:10075000304039F688B38C7F88BB0895B99A28E079
:1007600030E0E1E09E2F982321F098B39C7F9260C7
:1007700002C098B39C7F98BBEE0F1092410107C056
:1007800045E04A95F1F700C09F5F90934101909139
:100790004101692F70E0409163005091640064173B
:1007A000750770F3C09A1092410107C045E04A9561
:1007B000F1F700C09F5F9093410190914101692F33
:1007C00070E040916300509164006417750770F306
:1007D0002150304039F688B38C7F88BB0895EF9262
:1007E000FF921F93CF93DF930F92CDB7DEB7182FF1
:1007F000862FE12EF92E08C0898349DF90916C0085
:10080000F70191937F0189819E2D911B9817A0F389
:100810000F90DF91CF911F91FF90EF900895DF929D
:10082000EF92FF920F931F93CF93DF93182F062F12
:10083000E82EF92E50E6D52E32C0F70181917F01C6
:100840008093730024DF809170008D258093700069
:10085000C0E0D0E01DC080E790E069E670E0ECDE2B
:1008600080916C0090917300891741F4909174000D
:10087000891721F090917500891789F42091620001
:1008800030E045E0220F331F4A95E1F7C20FD31F36
:100890008091760090917700C817D907E0F28E2DED
:1008A000811B801750F281E0DF91CF911F910F9152
:1008B000FF90EF90DF900895FC0188B3942F9095FE
:1008C000982388B3842B12C0219138E088BB220F73
:1008D0003A9500C008F098BB00C0000098BB21F01A
:1008E00000C000C000C0F2CF6150704061157105BA
:1008F00059F70895CF93DF93EC014981442341F4E4
:1009000081E28983D0936301C093620188E038C299
:10091000413011F486B30AC16A81423011F468BBD8
:100920002EC2762F777081E090E0072E02C0880FEC
:10093000991F0A94E2F7582F433029F488B3509551
:10094000582358BB1CC2443019F488B3852B97C078
:10095000453049F460936200B99887B3856287BBDC
:1009600088B3887D8CC0463049F4B898C098B9984F
:10097000C198BA98C298BD98C59801C2473051F441
:10098000CE010296BE0158DED0936301C09362018E
:1009900084E0F6C1483031F4609374008B81809319
:1009A0007500EDC12C813D8130936E0020936D0068
:1009B000493011F480E211C04B3011F480EA0DC0CF
:1009C0002A813B8130937700209376004A3011F4DE
:1009D00080E403C04C3029F480EC80936F008FEFEB
:1009E000CFC14D3029F497B38095892387BBC7C108
:1009F0004E3021F497B3982B97BBC1C14F3009F506
:100A0000662329F48091780087B9A59A0CC06130DB
:100A100031F480917800816087B9A29A04C0623075
:100A200011F48FE887B9369A3699FECF84B188835E
:100A300085B18983D0936301C093620114BA82E0C7
:100A40009FC1403159F4B89AB99A8AB5806A8ABD73
:100A50008AB583608ABD83B7856039C0413121F48E
:100A600069BD8C8188BD8BC1423121F498B3982B2C
:100A700098BB85C1433129F498B38095892388BBFD
:100A80007EC1443159F426B330E02823392302C013
:100A9000359527957A95E2F7288349C0463169F55F
:100AA000662319F483B78B7F24C0613031F483B798
:100AB0008B7F83BF83B7826013C0623051F483B7EA
:100AC0008B7F83BF83B7826083BF83B7816083BF1F
:100AD00056C1633049F483B7846083BF83B78D7F89
:100AE00083BF83B78E7FF3CF643009F048C183B7EB
:100AF000846083BF83B78D7FE7CF4F3149F49B81FB
:100B000080E0860F911D909364008093630037C14D
:100B1000403219F41ABC13BE32C1413221F4609341
:100B2000870181E0E2C0423241F482E18883D093C0
:100B30006301C093620181E023C14332D9F4379A43
:100B400086B19A81892B86B98B81813049F08130B9
:100B500020F0823009F013C107C0109278000FC155
:100B600080917800806803C08091780080698093CC
:100B7000780005C1483249F48EE791E09093630113
:100B80008093620180918601FBC0493211F482E0BA
:100B9000ACC04A3211F483E00BC04B3211F484E054
:100BA000A4C04C3211F488E0A0C04D3231F489E089
:100BB0008093680060938701E2C04E3251F48BE06D
:100BC00080936800609387018B81809388018C817A
:100BD00034C04F3259F4613031F4B89AB99ABA9AA4
:100BE00060937900CCC010927900C9C0403349F4B9
:100BF00060937A008B8180937B008C8180937C0052
:100C0000BEC0413329F460937D0010927E00B7C0CE
:100C1000423311F485E069C0433321F460938701C6
:100C200086E063C0443361F4609368008B818093F5
:100C300087018C81809388018D81809389019FC079
:100C4000453369F4609387018B81809388018C819F
:100C5000809389018D8180938A0180E146C046336B
:100C600071F565FF1BC080917F00803CB8F49B81CB
:100C7000E82FF0E0E058FF4F90839C81E82FEF5F72
:100C8000F0E0E058FF4F90839D81E82FEE5FF0E0A9
:100C9000E058FF4F90838D5F80937F008A8184FFAF
:100CA0006EC080917F00882309F469C081E1809340
:100CB000680087B3852B87BB5093400160C0842FA9
:100CC00090E0807F9070803D910591F44770409353
:100CD0008701609388018B81809389018C81809347
:100CE0008A018D8180938B018EE08093680047C0DC
:100CF000803E910501F58AE080936800842F87701B
:100D0000809387014870409388011092410180E0F0
:100D10000BC090E00296FE01E80FF91F3081895761
:100D20009E4FFC013083822F90918701282F2F5FE7
:100D3000891778F322C0803F910509F587E08093F9
:100D40006800842F887080938701477040938801E2
:100D50001092410180E00BC090E00296FE01E80F86
:100D6000F91F308189579E4FFC013083822F90916B
:100D70008801282F2F5F891778F38093410180E045
:100D8000DF91CF910895DF92EF92FF920F931F931F
:100D9000CF93DF93C8E0D0E010E000E8D02ED10E72
:100DA000D1BEA7D97C0184E3E81689E0F8060CF4EB
:100DB0001D2D0695219791F7812F815081BFC12F5D
:100DC000D0E0219610C095D98453994097FF03C075
:100DD000909581959F4F8E159F0514F411B77C0156
:100DE00081B78F5F81BF81B790E0C817D9075CF7E3
:100DF00011BF61B780E090E03FD4DF91CF911F91A8
:100E00000F91FF90EF90DF900895882311F0B8982C
:100E100001C0B89ABA981092410107C025E02A95FE
:100E2000F1F700C09F5F9093410190914101492FDC
:100E300050E020917D0030917E004217530770F3FF
:100E4000BA9A1092410107C025E02A95F1F700C037
:100E50009F5F9093410190914101492F50E0209173
:100E60007D0030917E004217530770F38111B89ACC
:100E70000895B898BA981092410107C025E02A95C4
:100E8000F1F700C04F5F4093410140914101242F91
:100E900030E080917D0090917E002817390770F333
:100EA00086B3BA9A1092410107C025E02A95F1F75E
:100EB00000C09F5F9093410190914101492F50E004
:100EC00020917D0030917E004217530770F38170AE
:100ED000089588B38A7F88BBBA98B8981092410168
:100EE00007C085E08A95F1F700C04F5F409341014C
:100EF00040914101242F30E080917D0090917E004F
:100F00002817390770F3089587B38A7F87BB10923B
:100F1000410107C085E08A95F1F700C04F5F40931B
:100F2000410140914101242F30E080917D0090915A
:100F30007E002817390770F3B89A1092410107C054
:100F400085E08A95F1F700C04F5F409341014091E1
:100F50004101242F30E080917D0090917E00281780
:100F6000390770F3BA9A1092410107C085E08A955B
:100F7000F1F700C04F5F4093410140914101242FA0
:100F800030E080917D0090917E002817390770F342
:100F90000895B89ABA9A1092410107C085E08A95DF
:100FA000F1F700C04F5F4093410140914101242F70
:100FB00030E080917D0090917E002817390770F312
:100FC000BA981092410107C085E08A95F1F700C0F8
:100FD0004F5F4093410140914101242F30E08091C7
:100FE0007D0090917E002817390770F3B898109211
:100FF000410107C085E08A95F1F700C04F5F40933B
:10100000410140914101242F30E080917D00909179
:101010007E002817390770F30895CF93DF93D82FF8
:10102000C8E08D2F8078F1DEDD0FC150D1F721DFD0
:10103000DF91CF9108951F93CF93DF93182FD8E0BE
:10104000C0E0CC0F16DFC82BD150D9F7112311F017
:1010500080E001C081E0D9DE1092410107C095E037
:101060009A95F1F700C08F5F809341018091410113
:10107000482F50E020917D0030917E0042175307A9
:1010800070F38C2FDF91CF911F91089580E287BB81
:1010900088BB80E090E0E8D28F3F09F081BFBB9A27
:1010A00084E1E2EBF1EF3197F1F700C000008150ED
:1010B000C1F7BB9885E090E090937E0080937D001F
:1010C00010926400109263002EE088E190E00FB669
:1010D000F894A89581BD0FBE21BD109242011092D7
:1010E00043011092440110927A0010927B001092FA
:1010F0007C00109245011092680093DA7894B898B9
:10110000C098B998C198BA98C298BD98C59811E08E
:101110000BE1FAE1FF2EA0E4EA2EA8955BD9E0915D
:101120006800F0E0E231F10508F069C2E15FFF4FCD
:101130000994B89AB998BA9AC29A10927E0180918D
:1011400087018093460180E83DC0C09840E005C01B
:10115000F5E0FA95F1F700C04F5F242F30E0809161
:101160006300909164002817390790F3809147013C
:1011700090914601892309F0C09AC29880917E011E
:10118000880F80937E0120917E0186B390E082706B
:10119000907095958795280F20937E0140E005C0BB
:1011A00025E02A95F1F700C04F5F242F30E08091B1
:1011B0006300909164002817390790F3C29A8091D8
:1011C000470186958093470180914701882309F064
:1011D000BCCF12C1BA9AC2988BEB97E00197F1F796
:1011E00000C000009FB7F894C29AE0E2F1E03197A6
:1011F000F1F700C0BA9881E0B29980E080937E0157
:101200009FBF8BE996E00197F1F7BA9AC29AF4C0B2
:101210008091870180934701BA9A88E02FB7F894AC
:10122000C2989091470190FF0BC091E29A95F1F717
:10123000C29AE7E0F1E03197F1F700C0000009C081
:10124000E7EFF0E03197F1F70000C29AF7E3FA9583
:10125000F1F7909147019695909347012FBF8150E8
:10126000E9F6CDC110927E0128E080917E0186953D
:1012700080937E01BA9A3FB7F894C29881E28A952A
:10128000F1F7C29A97E39A95F1F7BA9886B390E08E
:101290008470907095958795959587958093470173
:1012A0003FBFE2EEF0E03197F1F700C0000080911F
:1012B0004701882329F080917E01806880937E0118
:1012C000215099F699C0BA9A2FB7F894C298F1E2D2
:1012D000FA95F1F7C29A87E38A95F1F7BA9886B33F
:1012E00090E08470907095958795959587958093FB
:1012F0007E012FBF81C0BA9A8FB7F894C29890919F
:10130000870190FF0BC091E29A95F1F7C29AE7E04E
:10131000F1E03197F1F700C0000009C0E7EFF0E01D
:101320003197F1F70000C29AF7E3FA95F1F78FBF12
:1013300066C1B99AB898BA9AC29800934601FDB8A6
:10134000809187018111C5981092470126C0F0E075
:10135000E757FE4F80818FB9EEB8809146018DB975
:1013600040E005C025E02A95F1F700C04F5F242F2B
:1013700030E080916300909164002817390790F362
:10138000769BEBCF80914701E82FF0E09FB1E258C8
:10139000FE4F90838F5F80934701E09147018091DA
:1013A0008801E817A0F2809187018111C59A809188
:1013B0004701EDC08EDD23C180E090E0A5DD809186
:1013C00087012BDE8093470115C0EC2FF0E0E75733
:1013D000FE4F808122DE80934701CF5F01C0C0E0D5
:1013E00080918701C81788F3809188018111D1DD30
:1013F0008091470180937E011093860100C1809106
:101400008701DD24882329F41CC081E014DE888351
:10141000D3942D2D30E08091880190E00197E9016F
:10142000C258DE4F2817390784F380E004DE888332
:101430000CC0CD2DD0E081E0FEDDC258DE4F8883A8
:10144000D39480918801D816A0F3809189018823D4
:1014500009F49BC09EDD99C0809188013ED9CFC020
:1014600040918801B99A2CC041501092410107C0A7
:1014700085E08A95F1F700C05F5F5093410150917C
:101480004101252F30E0809163009091640028177E
:10149000390770F3C09A1092410107C095E09A9500
:1014A000F1F700C05F5F5093410150914101252F3A
:1014B00030E080916300909164002817390770F341
:1014C00088B38C7F88BB442379F699C0EC2FF0E079
:1014D000E857FE4F808142D9CF5F01C0C0E08091C4
:1014E0008701C81798F38BC0B998C19A88E090E03B
:1014F00071E01092410107C0F5E0FA95F1F700C0E4
:10150000EF5FE0934101E09141014E2F50E02091C7
:101510006300309164004217530770F3C09A109231
:10152000410107C025E02A95F1F700C0EF5FE09385
:101530004101E09141014E2F50E020916300309134
:1015400064004217530770F330914701B19B04C008
:10155000372B3093470105C0272F20952323209355
:101560004701C098770F019721F6C198E62FF0E068
:1015700080914701E258FE4F80836F5F01C060E0B9
:1015800080918801681708F4AFCF8091880180931B
:10159000860135C080E0A1D880918801DFD8809194
:1015A0008901DCD880918A01D9D8109247010DC0F9
:1015B00080E093D880E0D2D880E0D0D880E0CED848
:1015C000809147018F5F80934701809187019091BF
:1015D0004701981768F313C08CE190E10197F1F788
:1015E00000C00000CFB7F89460917F0080E890E0E1
:1015F00070E04091400160D910927F00CFBF1092FF
:10160000680080917900882309F487CD8091450195
:10161000882369F480917A008093420180917B0055
:101620008093430180917C008093440117C0909186
:101630004201981710F4C09801C0C09A80914501EA
:1016400090914301981710F4C19801C0C19A9091EC
:101650004401981710F4C29801C0C29A80914501C4
:101660008F5F8093450159CDE199FECF9FBB8EBB23
:10167000E09A99278DB30895262FE199FECF1CBAE1
:101680009FBB8EBB2DBB0FB6F894E29AE19A0FBEBA
:0816900001960895F894FFCFC4
:061698005AFF0A0A0000DF
:00000001FF
